:020000040800F2
:10000000882000204D0B0008470A0008490A000814
:100010004B0A00084D0A00084F0A000800000000C3
:10002000000000000000000000000000510A00086D
:10003000530A000800000000550A0008570A00088B
:100040005D0B0008610B0008650B0008690B0008D8
:100050006D0B0008710B0008750B0008790B000888
:100060007D0B0008810B0008850B0008890B000838
:100070008D0B0008910B0008950B0008990B0008E8
:100080009D0B0008A10B0008A50B0008A90B000898
:10009000AD0B0008B10B0008B50B0008B90B000848
:1000A000BD0B0008C10B0008C50B0008C90B0008F8
:1000B000CD0B0008D10B0008D50B0008D90B0008A8
:1000C000DD0B0008E10B0008E50B0008E90B000858
:1000D000ED0B0008F10B000891090008F50B000872
:1000E0002D080008F90B0008FD0B0008010C0008A2
:1000F000050C0008090C00080D0C0008110C000884
:10010000150C0008190C00081D0C0008210C000833
:10011000250C0008290C00082D0C000829020008F5
:10012000310C0008350C0008390C00083D0C0008A3
:10013000410C0008450C0008490C00084D0C000853
:10014000510C0008550C0008590C00085D0C000803
:10015000610C0008650C0008690C00086D0C0008B3
:10016000710C0008750C0008790C00087D0C000863
:10017000810C0008850C0008890C00088D0C000813
:10018000910C0008950C000810B586B001210420E0
:1001900000F008F90121202000F012F901208DF86B
:1001A000080000208DF80A0003208DF809000020C7
:1001B0008DF80B0040F6FF70019001A96C4800F02B
:1001C00011F94FF4A06000F05FF937208DF80000BE
:1001D00001208DF8010001208DF8020001208DF82A
:1001E0000300684600F055F95320ADF80C0040F6C6
:1001F0009F7004900020ADF814000020ADF80E00B0
:100200005C4C03A9200000F07FF90121200000F0E0
:10021000EBF901220121200000F0C8F901212000A2
:1002200000F0A7F906B010BD38B5524C01212000EE
:1002300000F0C8F9002823D00121200000F0D4F9F3
:100240004D4C2068401C20604C480168491C0160EE
:100250004B4D4C480168286800F013F828680428C2
:1002600002D10120286002E02868401C2860206834
:10027000FA2805DB0020206043480168491C016022
:1002800031BD10B5012812D14FF47A7091FBF0F214
:1002900000FB12103D4A10603D484FF47A7291FB0A
:1002A000F2F101600168012000F036F833E0022825
:1002B00013D1384935480268642392FBF3F20A608F
:1002C00064220368046894FBF2F402FB14320260B7
:1002D0000968022000F020F81DE003280BD12E4809
:1002E0002A4909680A2291FBF2F1016001680320A2
:1002F00000F012F80FE004280DD10A21274A234804
:100300000368006890FBF1F001FB10311160116887
:10031000042000F001F810BD70B506000D00144C6B
:10032000200000F0A7F850F47060010089B22000AE
:1003300000F0A7F8200000F09DF84FF48072711EC5
:100340008A4052F0FF029043010089B2200000F081
:1003500098F8200000F08EF810F470601049495DA4
:100360000843010089B2200000F08BF870BD000046
:1003700000080240001400405C00002060000020E3
:100380001C00002068000020640000207C00002089
:100390006C00002070000020740000207800002015
:1003A00008000020C9B2002904D00C490A68104393
:1003B000086004E009490A6832EA000008607047F2
:1003C000C9B2002904D006490A681043086004E055
:1003D00003490A6832EA000008607047303802407A
:1003E00040380240F0B400220022002200233DE009
:1003F000012414FA03F20D681540954235D1032506
:1004000002685E0015FA06F6B243026006680F79CC
:100410005A0097403E4306600A79012A02D00A79C1
:10042000022A16D182685E0015FA06F6B24382608F
:1004300086684F795A0097403E43866042689C40E8
:1004400032EA0404446042688C799C40A4B222439E
:100450004260C4685A00954034EA0505C560C46826
:10046000CD795A0095402C43C4605B1C102BBFD340
:10047000F0BC7047006980B27047018370474183C8
:10048000704789B2416170471A4908431A490860A8
:100490007047002100210F23C17800291FD0164981
:1004A000096811F4E061D1F5E061090AD1F10402B3
:1004B000DBB20B41417811FA02F281780B401A430A
:1004C00012010E490378CA540121027812F01F026A
:1004D00091400B4A0078401142F8201009E00121B8
:1004E000027812F01F029140064A0078401142F84B
:1004F000201070470000FA050CED00E000E400E079
:1005000000E100E080E100E010B400220488204B0C
:1005100098420ED0244A90420BD0B0F1804F08D0C0
:100520001C4A904205D01C4A904202D01B4A90427D
:1005300004D14FF68F7214404A881443184A9042EF
:1005400007D0184A904204D04FF6FF4214400A895F
:10055000144304804A68C2620A880285984202D025
:10056000114A904201D1897A01860121818210BC11
:100570007047C9B2002904D0018851F001010180FF
:1005800004E002884FF6FE710A40028070470000C6
:10059000000001400004004000080040000C004042
:1005A000001000400014004000040140D2B2002AB4
:1005B00003D082891143818103E0828932EA0101FB
:1005C00081817047002200220022028A0A4080892D
:1005D000014092B2002A04D089B2002901D0012042
:1005E00000E00020C0B2704789B2C9430182704761
:1005F00080B53C48016851F4700101603A490868CF
:1006000050F0010008600020384A10600A6838483D
:1006100002400A603748384A1060086830F4802089
:10062000086000203549086000F005F85FF00060C0
:100630003349086001BD82B0002001900020009085
:100640002949086850F480300860086810F40030C8
:1006500000900198401C01900098002803D1019857
:10066000B0F5A04FF1D10868800302D501200090B9
:1006700001E000200090009801282FD12148026855
:1006800052F0805202602048026852F440420260F8
:10069000164802680260026852F400420260026872
:1006A00052F4A0520260194A134B1A600A6852F0C1
:1006B00080720A600A689201FCD540F20571144A02
:1006C00011600168890889000160016851F0020128
:1006D0000160016811F00C010829FAD102B07047DD
:1006E0000000000088ED00E00038024008380240B9
:1006F000FFFFF6FE10300024043802400C380240A0
:1007000008ED00E040380240007000400854400707
:10071000003C024081B00021009144F2A011484306
:10072000009002E00098401E009000980028F9D147
:1007300001B0704781B0002100910001009002E0FB
:100740000098401E009000980028F9D101B0704731
:10075000E0B501210720FFF725FE01208DF80400F8
:1007600000208DF8060003208DF8050000208DF88C
:1007700007000720009069462A48FFF733FE4FF430
:10078000FF50009069462848FFF72CFE00F021F842
:1007900007BD10B5234C04212000FFF76EFE052095
:1007A000FFF7B8FF04212000FFF769FE10BD10B568
:1007B0001C4C02212000FFF762FE01212000FFF700
:1007C0005EFE4FF4E0611848FFF75BFEFFF7E1FFC4
:1007D00010BD10B504211348FFF751FE0F20FFF79D
:1007E00099FFFFF7E4FF0A20FFF794FFFFF7DFFF11
:1007F0009620FFF79FFFFFF7DAFF0B4C4FF4F071E5
:100800002000FFF73EFEFFF7C4FFC0212000FFF7E6
:1008100038FEFFF7BEFF20212000FFF732FEFFF772
:10082000B8FF10BD000402400000024080B54FF444
:10083000805000F037F8002807D0012018490860E0
:100840004FF4805000F038F828E04FF4005000F0EA
:1008500029F8002807D00220114908604FF4005001
:1008600000F02AF81AE04FF4804000F01BF800284E
:1008700007D003200A4908604FF4804000F01CF8BC
:100880000CE04FF4004000F00DF8002806D00420E2
:10089000034908604FF4004000F00EF801BD00006D
:1008A00054000020002106490968014201D00120BE
:1008B00000E00020C0B270470149086070470000A6
:1008C000143C01408088C005C00D704710B4002260
:1008D0000022002200220A0040F66A1392B29A42D5
:1008E0000B00DBB25B09DBB20A0092B212F01F020E
:1008F000012414FA02F2012B02D183891A4006E086
:10090000022B02D1038A1A4001E0838A1A4089B27D
:10091000090A89B214FA01F100880140002A03D0C3
:10092000002901D0012000E00020C0B210BC7047B7
:1009300080B5FFF729FCFFF70BFF1149086842F269
:100940001072904211D10A680E48006842F210738A
:1009500090FBF3F082180A6008683C2805D100205B
:10096000086009480168491C0160074801683C2982
:10097000E3D10021016005480168491C0160DCE702
:10098000580000206000002004000020000000202B
:1009900010B5104C40F225512000FFF797FF0028BA
:1009A00016D02000FFF78EFF0B490C4A0B68D0547D
:1009B0000868105C0D2808D100200B68D054012075
:1009C000074A10700020086002E00868401C0860B8
:1009D00010BD0000004400408000002020000020E6
:1009E0008400002030B4002512E050F8042BD30717
:1009F00044BF4A44521E091F042942F8045BFAD23C
:100A000013468C0744BF15809B1CC90748BF1D7047
:100A100050F8041B0029E8D130BC70470EE0026892
:100A20004368024408305FEAC37C44BF4B445B1E0A
:100A300052F804CB43F804CB091FF9D150F8041B3A
:100A40000029ECD170477047FEE7FEE7FEE7FEE7BE
:100A5000704770477047704710B50749794418319F
:100A6000064C7C44163404E00A68081D114488478B
:100A70000146A142F8D110BD2C0000004C0000003E
:100A80004EF68851CEF20001086840F4700008600C
:100A9000BFF34F8FBFF36F8F4FF00170E1EE100A7D
:100AA0007047000041FFFFFF6800000020000020A9
:100AB0000000000069FFFFFF200000000C000000A4
:100AC00000000020000000001400000027000000CB
:100AD0003F065B4F666D7C077F67777C395E797177
:100AE000088000000100000000F00DF8002801D08F
:100AF000FFF7B2FFAFF300800020AFF30080FFF7F5
:100B000017FF00F002F80120704700F001B8000064
:100B10000746384600F002F8FBE7000080B5AFF367
:100B20000080024A11001820ABBEFBE7260002003D
:100B30000548014603B4684680F30988AFF3008096
:100B4000FFF79EFFFFF7D0FFA5EDF5FE01488047B8
:100B500001480047F1050008310B0008FFF7FEBF10
:100B6000FFF7FEBFFFF7FEBFFFF7FEBFFFF7FEBFB9
:100B7000FFF7FEBFFFF7FEBFFFF7FEBFFFF7FEBFA9
:100B8000FFF7FEBFFFF7FEBFFFF7FEBFFFF7FEBF99
:100B9000FFF7FEBFFFF7FEBFFFF7FEBFFFF7FEBF89
:100BA000FFF7FEBFFFF7FEBFFFF7FEBFFFF7FEBF79
:100BB000FFF7FEBFFFF7FEBFFFF7FEBFFFF7FEBF69
:100BC000FFF7FEBFFFF7FEBFFFF7FEBFFFF7FEBF59
:100BD000FFF7FEBFFFF7FEBFFFF7FEBFFFF7FEBF49
:100BE000FFF7FEBFFFF7FEBFFFF7FEBFFFF7FEBF39
:100BF000FFF7FEBFFFF7FEBFFFF7FEBFFFF7FEBF29
:100C0000FFF7FEBFFFF7FEBFFFF7FEBFFFF7FEBF18
:100C1000FFF7FEBFFFF7FEBFFFF7FEBFFFF7FEBF08
:100C2000FFF7FEBFFFF7FEBFFFF7FEBFFFF7FEBFF8
:100C3000FFF7FEBFFFF7FEBFFFF7FEBFFFF7FEBFE8
:100C4000FFF7FEBFFFF7FEBFFFF7FEBFFFF7FEBFD8
:100C5000FFF7FEBFFFF7FEBFFFF7FEBFFFF7FEBFC8
:100C6000FFF7FEBFFFF7FEBFFFF7FEBFFFF7FEBFB8
:100C7000FFF7FEBFFFF7FEBFFFF7FEBFFFF7FEBFA8
:100C8000FFF7FEBFFFF7FEBFFFF7FEBFFFF7FEBF98
:080C9000FFF7FEBFFFF7FEBFF6
:0400000508000B31B3
:00000001FF
